{
  "contractName": "SupplyChain",
  "abi": [
    {
      "inputs": [],
      "stateMutability": "nonpayable",
      "type": "constructor"
    },
    {
      "anonymous": false,
      "inputs": [
        {
          "indexed": true,
          "internalType": "uint256",
          "name": "productId",
          "type": "uint256"
        },
        {
          "indexed": true,
          "internalType": "address",
          "name": "creator",
          "type": "address"
        }
      ],
      "name": "ProductCreated",
      "type": "event"
    },
    {
      "inputs": [
        {
          "internalType": "address",
          "name": "",
          "type": "address"
        }
      ],
      "name": "deliveries",
      "outputs": [
        {
          "internalType": "address",
          "name": "logistics",
          "type": "address"
        },
        {
          "internalType": "uint256",
          "name": "quantity",
          "type": "uint256"
        },
        {
          "internalType": "address",
          "name": "customer",
          "type": "address"
        },
        {
          "internalType": "uint256",
          "name": "fair",
          "type": "uint256"
        },
        {
          "internalType": "uint256",
          "name": "totalBill",
          "type": "uint256"
        },
        {
          "internalType": "uint256",
          "name": "productId",
          "type": "uint256"
        }
      ],
      "stateMutability": "view",
      "type": "function",
      "constant": true
    },
    {
      "inputs": [
        {
          "internalType": "uint256",
          "name": "",
          "type": "uint256"
        }
      ],
      "name": "entities",
      "outputs": [
        {
          "internalType": "address",
          "name": "Firmadd",
          "type": "address"
        },
        {
          "internalType": "string",
          "name": "Firmname",
          "type": "string"
        },
        {
          "internalType": "string",
          "name": "Firmlocation",
          "type": "string"
        },
        {
          "internalType": "string",
          "name": "ownerName",
          "type": "string"
        },
        {
          "internalType": "string",
          "name": "ownerContact",
          "type": "string"
        },
        {
          "internalType": "string",
          "name": "city",
          "type": "string"
        },
        {
          "internalType": "enum SupplyChain.EntityType",
          "name": "entityType",
          "type": "uint8"
        },
        {
          "internalType": "bool",
          "name": "isAllowed",
          "type": "bool"
        }
      ],
      "stateMutability": "view",
      "type": "function",
      "constant": true
    },
    {
      "inputs": [],
      "name": "id",
      "outputs": [
        {
          "internalType": "uint256",
          "name": "",
          "type": "uint256"
        }
      ],
      "stateMutability": "view",
      "type": "function",
      "constant": true
    },
    {
      "inputs": [],
      "name": "owner",
      "outputs": [
        {
          "internalType": "address",
          "name": "",
          "type": "address"
        }
      ],
      "stateMutability": "view",
      "type": "function",
      "constant": true
    },
    {
      "inputs": [
        {
          "internalType": "uint256",
          "name": "",
          "type": "uint256"
        }
      ],
      "name": "products",
      "outputs": [
        {
          "internalType": "uint256",
          "name": "id",
          "type": "uint256"
        },
        {
          "internalType": "string",
          "name": "variety",
          "type": "string"
        },
        {
          "internalType": "uint256",
          "name": "price",
          "type": "uint256"
        },
        {
          "internalType": "uint256",
          "name": "quantity",
          "type": "uint256"
        },
        {
          "internalType": "string",
          "name": "dateOfHarvest",
          "type": "string"
        },
        {
          "internalType": "address",
          "name": "currentOwner",
          "type": "address"
        },
        {
          "internalType": "address",
          "name": "creator",
          "type": "address"
        }
      ],
      "stateMutability": "view",
      "type": "function",
      "constant": true
    },
    {
      "stateMutability": "payable",
      "type": "receive",
      "payable": true
    },
    {
      "inputs": [
        {
          "internalType": "address",
          "name": "_Firmadd",
          "type": "address"
        },
        {
          "internalType": "string",
          "name": "_Firmname",
          "type": "string"
        },
        {
          "internalType": "string",
          "name": "_Firmlocation",
          "type": "string"
        },
        {
          "internalType": "string",
          "name": "_ownerName",
          "type": "string"
        },
        {
          "internalType": "string",
          "name": "_ownerContact",
          "type": "string"
        },
        {
          "internalType": "string",
          "name": "_city",
          "type": "string"
        },
        {
          "internalType": "enum SupplyChain.EntityType",
          "name": "_entityType",
          "type": "uint8"
        }
      ],
      "name": "setEntity",
      "outputs": [],
      "stateMutability": "nonpayable",
      "type": "function"
    },
    {
      "inputs": [
        {
          "internalType": "address",
          "name": "_Firmadd",
          "type": "address"
        }
      ],
      "name": "allowEntity",
      "outputs": [],
      "stateMutability": "nonpayable",
      "type": "function"
    },
    {
      "inputs": [
        {
          "internalType": "address",
          "name": "_Firmadd",
          "type": "address"
        }
      ],
      "name": "disallowEntity",
      "outputs": [],
      "stateMutability": "nonpayable",
      "type": "function"
    },
    {
      "inputs": [],
      "name": "getEntity",
      "outputs": [
        {
          "components": [
            {
              "internalType": "address",
              "name": "Firmadd",
              "type": "address"
            },
            {
              "internalType": "string",
              "name": "Firmname",
              "type": "string"
            },
            {
              "internalType": "string",
              "name": "Firmlocation",
              "type": "string"
            },
            {
              "internalType": "string",
              "name": "ownerName",
              "type": "string"
            },
            {
              "internalType": "string",
              "name": "ownerContact",
              "type": "string"
            },
            {
              "internalType": "string",
              "name": "city",
              "type": "string"
            },
            {
              "internalType": "enum SupplyChain.EntityType",
              "name": "entityType",
              "type": "uint8"
            },
            {
              "internalType": "bool",
              "name": "isAllowed",
              "type": "bool"
            }
          ],
          "internalType": "struct SupplyChain.Entity[]",
          "name": "",
          "type": "tuple[]"
        }
      ],
      "stateMutability": "view",
      "type": "function",
      "constant": true
    },
    {
      "inputs": [
        {
          "internalType": "string",
          "name": "_variety",
          "type": "string"
        },
        {
          "internalType": "uint256",
          "name": "_price",
          "type": "uint256"
        },
        {
          "internalType": "uint256",
          "name": "_quantity",
          "type": "uint256"
        },
        {
          "internalType": "string",
          "name": "_date",
          "type": "string"
        }
      ],
      "name": "productCreation",
      "outputs": [],
      "stateMutability": "nonpayable",
      "type": "function"
    },
    {
      "inputs": [],
      "name": "getProducts",
      "outputs": [
        {
          "components": [
            {
              "internalType": "uint256",
              "name": "id",
              "type": "uint256"
            },
            {
              "internalType": "string",
              "name": "variety",
              "type": "string"
            },
            {
              "internalType": "uint256",
              "name": "price",
              "type": "uint256"
            },
            {
              "internalType": "uint256",
              "name": "quantity",
              "type": "uint256"
            },
            {
              "internalType": "string",
              "name": "dateOfHarvest",
              "type": "string"
            },
            {
              "internalType": "address",
              "name": "currentOwner",
              "type": "address"
            },
            {
              "internalType": "address",
              "name": "creator",
              "type": "address"
            }
          ],
          "internalType": "struct SupplyChain.Product[]",
          "name": "",
          "type": "tuple[]"
        }
      ],
      "stateMutability": "view",
      "type": "function",
      "constant": true
    },
    {
      "inputs": [
        {
          "internalType": "uint256",
          "name": "_productId",
          "type": "uint256"
        },
        {
          "internalType": "uint256",
          "name": "_newPrice",
          "type": "uint256"
        }
      ],
      "name": "updateProductPrice",
      "outputs": [],
      "stateMutability": "nonpayable",
      "type": "function"
    },
    {
      "inputs": [
        {
          "internalType": "uint256",
          "name": "_productId",
          "type": "uint256"
        },
        {
          "internalType": "uint256",
          "name": "_weight",
          "type": "uint256"
        },
        {
          "internalType": "string",
          "name": "_variety",
          "type": "string"
        },
        {
          "internalType": "uint256",
          "name": "_price",
          "type": "uint256"
        },
        {
          "internalType": "string",
          "name": "_date",
          "type": "string"
        }
      ],
      "name": "directPurchase",
      "outputs": [],
      "stateMutability": "payable",
      "type": "function",
      "payable": true
    },
    {
      "inputs": [
        {
          "internalType": "uint256",
          "name": "_productId",
          "type": "uint256"
        },
        {
          "internalType": "address",
          "name": "_logistics",
          "type": "address"
        },
        {
          "internalType": "uint256",
          "name": "_quantity",
          "type": "uint256"
        },
        {
          "internalType": "address",
          "name": "_customer",
          "type": "address"
        },
        {
          "internalType": "uint256",
          "name": "_fair",
          "type": "uint256"
        }
      ],
      "name": "delivery",
      "outputs": [],
      "stateMutability": "nonpayable",
      "type": "function"
    },
    {
      "inputs": [],
      "name": "acceptDelivery",
      "outputs": [],
      "stateMutability": "payable",
      "type": "function",
      "payable": true
    },
    {
      "inputs": [],
      "name": "rejectDelivery",
      "outputs": [],
      "stateMutability": "nonpayable",
      "type": "function"
    },
    {
      "inputs": [],
      "name": "cancelDelivery",
      "outputs": [],
      "stateMutability": "nonpayable",
      "type": "function"
    },
    {
      "inputs": [],
      "name": "receiveDelivery",
      "outputs": [],
      "stateMutability": "nonpayable",
      "type": "function"
    },
    {
      "inputs": [
        {
          "internalType": "address",
          "name": "_customer",
          "type": "address"
        }
      ],
      "name": "getDeliveryDetails",
      "outputs": [
        {
          "internalType": "address",
          "name": "logistics",
          "type": "address"
        },
        {
          "internalType": "uint256",
          "name": "quantity",
          "type": "uint256"
        },
        {
          "internalType": "address",
          "name": "customer",
          "type": "address"
        },
        {
          "internalType": "uint256",
          "name": "fair",
          "type": "uint256"
        },
        {
          "internalType": "uint256",
          "name": "totalBill",
          "type": "uint256"
        },
        {
          "internalType": "uint256",
          "name": "productId",
          "type": "uint256"
        }
      ],
      "stateMutability": "view",
      "type": "function",
      "constant": true
    }
  ],
  "bytecode": "0x608060405234801561001057600080fd5b50336000806101000a81548173ffffffffffffffffffffffffffffffffffffffff021916908373ffffffffffffffffffffffffffffffffffffffff1602179055506000600181905550614d54806100686000396000f3fe6080604052600436106101185760003560e01c80639c3bddb2116100a0578063c29b2f2011610064578063c29b2f2014610378578063c343fcf0146103a3578063d1d1c024146103bf578063e93c96e1146103e8578063ff200d2b146104115761011f565b80639c3bddb2146102bb578063aa33b612146102e4578063af640d0f1461030d578063b1aca71e14610338578063b5df610f146103615761011f565b806376206197116100e757806376206197146101a057806376a08ba1146101e25780637acc0b20146102245780638a7b909e146102675780638da5cb5b146102905761011f565b80630cf120da146101245780631f6944561461013b5780634b421105146101455780636331883b1461015c5761011f565b3661011f57005b600080fd5b34801561013057600080fd5b5061013961043c565b005b610143610651565b005b34801561015157600080fd5b5061015a6107fd565b005b34801561016857600080fd5b50610183600480360381019061017e91906131ed565b610e5c565b60405161019798979695949392919061337d565b60405180910390f35b3480156101ac57600080fd5b506101c760048036038101906101c2919061344a565b611196565b6040516101d996959493929190613486565b60405180910390f35b3480156101ee57600080fd5b506102096004803603810190610204919061344a565b6113f4565b60405161021b96959493929190613486565b60405180910390f35b34801561023057600080fd5b5061024b600480360381019061024691906131ed565b611470565b60405161025e97969594939291906134e7565b60405180910390f35b34801561027357600080fd5b5061028e60048036038101906102899190613564565b611612565b005b34801561029c57600080fd5b506102a5611a26565b6040516102b291906135df565b60405180910390f35b3480156102c757600080fd5b506102e260048036038101906102dd91906135fa565b611a4a565b005b3480156102f057600080fd5b5061030b60048036038101906103069190613794565b611b53565b005b34801561031957600080fd5b50610322611f43565b60405161032f91906138c2565b60405180910390f35b34801561034457600080fd5b5061035f600480360381019061035a919061344a565b611f49565b005b34801561036d57600080fd5b50610376612032565b005b34801561038457600080fd5b5061038d612316565b60405161039a9190613aaa565b60405180910390f35b6103bd60048036038101906103b89190613acc565b612563565b005b3480156103cb57600080fd5b506103e660048036038101906103e19190613b7f565b612987565b005b3480156103f457600080fd5b5061040f600480360381019061040a919061344a565b612c29565b005b34801561041d57600080fd5b50610426612dbd565b6040516104339190613dca565b60405180910390f35b600560003373ffffffffffffffffffffffffffffffffffffffff1673ffffffffffffffffffffffffffffffffffffffff16815260200190815260200160002060009054906101000a900460ff166104c8576040517f08c379a00000000000000000000000000000000000000000000000000000000081526004016104bf90613e38565b60405180910390fd5b6000600760003373ffffffffffffffffffffffffffffffffffffffff1673ffffffffffffffffffffffffffffffffffffffff1681526020019081526020016000209050600073ffffffffffffffffffffffffffffffffffffffff168160020160009054906101000a900473ffffffffffffffffffffffffffffffffffffffff1673ffffffffffffffffffffffffffffffffffffffff160361059e576040517f08c379a000000000000000000000000000000000000000000000000000000000815260040161059590613ea4565b60405180910390fd5b600760003373ffffffffffffffffffffffffffffffffffffffff1673ffffffffffffffffffffffffffffffffffffffff168152602001908152602001600020600080820160006101000a81549073ffffffffffffffffffffffffffffffffffffffff021916905560018201600090556002820160006101000a81549073ffffffffffffffffffffffffffffffffffffffff0219169055600382016000905560048201600090556005820160009055505050565b600560003373ffffffffffffffffffffffffffffffffffffffff1673ffffffffffffffffffffffffffffffffffffffff16815260200190815260200160002060009054906101000a900460ff166106dd576040517f08c379a00000000000000000000000000000000000000000000000000000000081526004016106d490613e38565b60405180910390fd5b6000600760003373ffffffffffffffffffffffffffffffffffffffff1673ffffffffffffffffffffffffffffffffffffffff1681526020019081526020016000209050600073ffffffffffffffffffffffffffffffffffffffff168160020160009054906101000a900473ffffffffffffffffffffffffffffffffffffffff1673ffffffffffffffffffffffffffffffffffffffff16036107b3576040517f08c379a00000000000000000000000000000000000000000000000000000000081526004016107aa90613ea4565b60405180910390fd5b80600401543410156107fa576040517f08c379a00000000000000000000000000000000000000000000000000000000081526004016107f190613f10565b60405180910390fd5b50565b600560003373ffffffffffffffffffffffffffffffffffffffff1673ffffffffffffffffffffffffffffffffffffffff16815260200190815260200160002060009054906101000a900460ff16610889576040517f08c379a000000000000000000000000000000000000000000000000000000000815260040161088090613e38565b60405180910390fd5b6000600760003373ffffffffffffffffffffffffffffffffffffffff1673ffffffffffffffffffffffffffffffffffffffff1681526020019081526020016000209050600073ffffffffffffffffffffffffffffffffffffffff168160020160009054906101000a900473ffffffffffffffffffffffffffffffffffffffff1673ffffffffffffffffffffffffffffffffffffffff160361095f576040517f08c379a000000000000000000000000000000000000000000000000000000000815260040161095690613ea4565b60405180910390fd5b8060020160009054906101000a900473ffffffffffffffffffffffffffffffffffffffff1673ffffffffffffffffffffffffffffffffffffffff166108fc826003015483600401546109b19190613f5f565b9081150290604051600060405180830381858888f193505050501580156109dc573d6000803e3d6000fd5b508060000160009054906101000a900473ffffffffffffffffffffffffffffffffffffffff1673ffffffffffffffffffffffffffffffffffffffff166108fc82600301549081150290604051600060405180830381858888f19350505050158015610a4b573d6000803e3d6000fd5b5060006002826005015481548110610a6657610a65613f93565b5b90600052602060002090600702019050816001015481600301541015610ac1576040517f08c379a0000000000000000000000000000000000000000000000000000000008152600401610ab89061400e565b60405180910390fd5b8160010154816003016000828254610ad99190613f5f565b9250508190555060006040518060e001604052806001548152602001836001018054610b049061405d565b80601f0160208091040260200160405190810160405280929190818152602001828054610b309061405d565b8015610b7d5780601f10610b5257610100808354040283529160200191610b7d565b820191906000526020600020905b815481529060010190602001808311610b6057829003601f168201915b505050505081526020018360020154815260200184600101548152602001836004018054610baa9061405d565b80601f0160208091040260200160405190810160405280929190818152602001828054610bd69061405d565b8015610c235780601f10610bf857610100808354040283529160200191610c23565b820191906000526020600020905b815481529060010190602001808311610c0657829003601f168201915b505050505081526020013373ffffffffffffffffffffffffffffffffffffffff1681526020018360060160009054906101000a900473ffffffffffffffffffffffffffffffffffffffff1673ffffffffffffffffffffffffffffffffffffffff1681525090506002819080600181540180825580915050600190039060005260206000209060070201600090919091909150600082015181600001556020820151816001019081610cd4919061423a565b5060408201518160020155606082015181600301556080820151816004019081610cfe919061423a565b5060a08201518160050160006101000a81548173ffffffffffffffffffffffffffffffffffffffff021916908373ffffffffffffffffffffffffffffffffffffffff16021790555060c08201518160060160006101000a81548173ffffffffffffffffffffffffffffffffffffffff021916908373ffffffffffffffffffffffffffffffffffffffff160217905550505060016000815480929190610da29061430c565b9190505550600760003373ffffffffffffffffffffffffffffffffffffffff1673ffffffffffffffffffffffffffffffffffffffff168152602001908152602001600020600080820160006101000a81549073ffffffffffffffffffffffffffffffffffffffff021916905560018201600090556002820160006101000a81549073ffffffffffffffffffffffffffffffffffffffff02191690556003820160009055600482016000905560058201600090555050505050565b60038181548110610e6c57600080fd5b90600052602060002090600702016000915090508060000160009054906101000a900473ffffffffffffffffffffffffffffffffffffffff1690806001018054610eb59061405d565b80601f0160208091040260200160405190810160405280929190818152602001828054610ee19061405d565b8015610f2e5780601f10610f0357610100808354040283529160200191610f2e565b820191906000526020600020905b815481529060010190602001808311610f1157829003601f168201915b505050505090806002018054610f439061405d565b80601f0160208091040260200160405190810160405280929190818152602001828054610f6f9061405d565b8015610fbc5780601f10610f9157610100808354040283529160200191610fbc565b820191906000526020600020905b815481529060010190602001808311610f9f57829003601f168201915b505050505090806003018054610fd19061405d565b80601f0160208091040260200160405190810160405280929190818152602001828054610ffd9061405d565b801561104a5780601f1061101f5761010080835404028352916020019161104a565b820191906000526020600020905b81548152906001019060200180831161102d57829003601f168201915b50505050509080600401805461105f9061405d565b80601f016020809104026020016040519081016040528092919081815260200182805461108b9061405d565b80156110d85780601f106110ad576101008083540402835291602001916110d8565b820191906000526020600020905b8154815290600101906020018083116110bb57829003601f168201915b5050505050908060050180546110ed9061405d565b80601f01602080910402602001604051908101604052809291908181526020018280546111199061405d565b80156111665780601f1061113b57610100808354040283529160200191611166565b820191906000526020600020905b81548152906001019060200180831161114957829003601f168201915b5050505050908060060160009054906101000a900460ff16908060060160019054906101000a900460ff16905088565b600080600080600080600560008873ffffffffffffffffffffffffffffffffffffffff1673ffffffffffffffffffffffffffffffffffffffff16815260200190815260200160002060009054906101000a900460ff1661122b576040517f08c379a0000000000000000000000000000000000000000000000000000000008152600401611222906143a0565b60405180910390fd5b6000600760008973ffffffffffffffffffffffffffffffffffffffff1673ffffffffffffffffffffffffffffffffffffffff1681526020019081526020016000206040518060c00160405290816000820160009054906101000a900473ffffffffffffffffffffffffffffffffffffffff1673ffffffffffffffffffffffffffffffffffffffff1673ffffffffffffffffffffffffffffffffffffffff168152602001600182015481526020016002820160009054906101000a900473ffffffffffffffffffffffffffffffffffffffff1673ffffffffffffffffffffffffffffffffffffffff1673ffffffffffffffffffffffffffffffffffffffff16815260200160038201548152602001600482015481526020016005820154815250509050600073ffffffffffffffffffffffffffffffffffffffff16816040015173ffffffffffffffffffffffffffffffffffffffff16036113c0576040517f08c379a00000000000000000000000000000000000000000000000000000000081526004016113b790614432565b60405180910390fd5b806000015181602001518260400151836060015184608001518560a001519650965096509650965096505091939550919395565b60076020528060005260406000206000915090508060000160009054906101000a900473ffffffffffffffffffffffffffffffffffffffff16908060010154908060020160009054906101000a900473ffffffffffffffffffffffffffffffffffffffff16908060030154908060040154908060050154905086565b6002818154811061148057600080fd5b90600052602060002090600702016000915090508060000154908060010180546114a99061405d565b80601f01602080910402602001604051908101604052809291908181526020018280546114d59061405d565b80156115225780601f106114f757610100808354040283529160200191611522565b820191906000526020600020905b81548152906001019060200180831161150557829003601f168201915b5050505050908060020154908060030154908060040180546115439061405d565b80601f016020809104026020016040519081016040528092919081815260200182805461156f9061405d565b80156115bc5780601f10611591576101008083540402835291602001916115bc565b820191906000526020600020905b81548152906001019060200180831161159f57829003601f168201915b5050505050908060050160009054906101000a900473ffffffffffffffffffffffffffffffffffffffff16908060060160009054906101000a900473ffffffffffffffffffffffffffffffffffffffff16905087565b600560003373ffffffffffffffffffffffffffffffffffffffff1673ffffffffffffffffffffffffffffffffffffffff16815260200190815260200160002060009054906101000a900460ff1661169e576040517f08c379a000000000000000000000000000000000000000000000000000000000815260040161169590613e38565b60405180910390fd5b600560008573ffffffffffffffffffffffffffffffffffffffff1673ffffffffffffffffffffffffffffffffffffffff16815260200190815260200160002060009054906101000a900460ff1661172a576040517f08c379a00000000000000000000000000000000000000000000000000000000081526004016117219061449e565b60405180910390fd5b600560008373ffffffffffffffffffffffffffffffffffffffff1673ffffffffffffffffffffffffffffffffffffffff16815260200190815260200160002060009054906101000a900460ff166117b6576040517f08c379a00000000000000000000000000000000000000000000000000000000081526004016117ad9061450a565b60405180910390fd5b600083116117f9576040517f08c379a00000000000000000000000000000000000000000000000000000000081526004016117f09061459c565b60405180910390fd5b6002805490508510611840576040517f08c379a000000000000000000000000000000000000000000000000000000000815260040161183790614608565b60405180910390fd5b60006002868154811061185657611855613f93565b5b9060005260206000209060070201905083816003015410156118ad576040517f08c379a00000000000000000000000000000000000000000000000000000000081526004016118a490614674565b60405180910390fd5b6000828583600201546118c09190614694565b6118ca91906146d6565b90506040518060c001604052808773ffffffffffffffffffffffffffffffffffffffff1681526020018681526020018573ffffffffffffffffffffffffffffffffffffffff16815260200184815260200182815260200188815250600760008673ffffffffffffffffffffffffffffffffffffffff1673ffffffffffffffffffffffffffffffffffffffff16815260200190815260200160002060008201518160000160006101000a81548173ffffffffffffffffffffffffffffffffffffffff021916908373ffffffffffffffffffffffffffffffffffffffff1602179055506020820151816001015560408201518160020160006101000a81548173ffffffffffffffffffffffffffffffffffffffff021916908373ffffffffffffffffffffffffffffffffffffffff160217905550606082015181600301556080820151816004015560a0820151816005015590505050505050505050565b60008054906101000a900473ffffffffffffffffffffffffffffffffffffffff1681565b600060028381548110611a6057611a5f613f93565b5b906000526020600020906007020190508060050160009054906101000a900473ffffffffffffffffffffffffffffffffffffffff1673ffffffffffffffffffffffffffffffffffffffff163373ffffffffffffffffffffffffffffffffffffffff1614611b02576040517f08c379a0000000000000000000000000000000000000000000000000000000008152600401611af99061477c565b60405180910390fd5b60008211611b45576040517f08c379a0000000000000000000000000000000000000000000000000000000008152600401611b3c906147e8565b60405180910390fd5b818160020181905550505050565b60008054906101000a900473ffffffffffffffffffffffffffffffffffffffff1673ffffffffffffffffffffffffffffffffffffffff163373ffffffffffffffffffffffffffffffffffffffff1614611be1576040517f08c379a0000000000000000000000000000000000000000000000000000000008152600401611bd890614854565b60405180910390fd5b600460008873ffffffffffffffffffffffffffffffffffffffff1673ffffffffffffffffffffffffffffffffffffffff16815260200190815260200160002060009054906101000a900460ff1615611c6e576040517f08c379a0000000000000000000000000000000000000000000000000000000008152600401611c65906148c0565b60405180910390fd5b60036040518061010001604052808973ffffffffffffffffffffffffffffffffffffffff168152602001888152602001878152602001868152602001858152602001848152602001836004811115611cc957611cc86132eb565b5b815260200160011515815250908060018154018082558091505060019003906000526020600020906007020160009091909190915060008201518160000160006101000a81548173ffffffffffffffffffffffffffffffffffffffff021916908373ffffffffffffffffffffffffffffffffffffffff1602179055506020820151816001019081611d5a919061423a565b506040820151816002019081611d70919061423a565b506060820151816003019081611d86919061423a565b506080820151816004019081611d9c919061423a565b5060a0820151816005019081611db2919061423a565b5060c08201518160060160006101000a81548160ff02191690836004811115611dde57611ddd6132eb565b5b021790555060e08201518160060160016101000a81548160ff02191690831515021790555050506001600560008973ffffffffffffffffffffffffffffffffffffffff1673ffffffffffffffffffffffffffffffffffffffff16815260200190815260200160002060006101000a81548160ff0219169083151502179055506001600460008973ffffffffffffffffffffffffffffffffffffffff1673ffffffffffffffffffffffffffffffffffffffff16815260200190815260200160002060006101000a81548160ff02191690831515021790555060006004811115611ec957611ec86132eb565b5b816004811115611edc57611edb6132eb565b5b03611f3a576001600660008973ffffffffffffffffffffffffffffffffffffffff1673ffffffffffffffffffffffffffffffffffffffff16815260200190815260200160002060006101000a81548160ff0219169083151502179055505b50505050505050565b60015481565b60008054906101000a900473ffffffffffffffffffffffffffffffffffffffff1673ffffffffffffffffffffffffffffffffffffffff163373ffffffffffffffffffffffffffffffffffffffff1614611fd7576040517f08c379a0000000000000000000000000000000000000000000000000000000008152600401611fce9061492c565b60405180910390fd5b6001600560008373ffffffffffffffffffffffffffffffffffffffff1673ffffffffffffffffffffffffffffffffffffffff16815260200190815260200160002060006101000a81548160ff02191690831515021790555050565b600560003373ffffffffffffffffffffffffffffffffffffffff1673ffffffffffffffffffffffffffffffffffffffff16815260200190815260200160002060009054906101000a900460ff166120be576040517f08c379a00000000000000000000000000000000000000000000000000000000081526004016120b590613e38565b60405180910390fd5b6000600760003373ffffffffffffffffffffffffffffffffffffffff1673ffffffffffffffffffffffffffffffffffffffff1681526020019081526020016000209050600073ffffffffffffffffffffffffffffffffffffffff168160020160009054906101000a900473ffffffffffffffffffffffffffffffffffffffff1673ffffffffffffffffffffffffffffffffffffffff1603612194576040517f08c379a000000000000000000000000000000000000000000000000000000000815260040161218b90613ea4565b60405180910390fd5b8060000160009054906101000a900473ffffffffffffffffffffffffffffffffffffffff1673ffffffffffffffffffffffffffffffffffffffff166108fc82600301549081150290604051600060405180830381858888f19350505050158015612202573d6000803e3d6000fd5b506000816003015482600401546122199190613f5f565b90503373ffffffffffffffffffffffffffffffffffffffff166108fc829081150290604051600060405180830381858888f19350505050158015612261573d6000803e3d6000fd5b50600760003373ffffffffffffffffffffffffffffffffffffffff1673ffffffffffffffffffffffffffffffffffffffff168152602001908152602001600020600080820160006101000a81549073ffffffffffffffffffffffffffffffffffffffff021916905560018201600090556002820160006101000a81549073ffffffffffffffffffffffffffffffffffffffff021916905560038201600090556004820160009055600582016000905550505050565b60606002805480602002602001604051908101604052809291908181526020016000905b8282101561255a57838290600052602060002090600702016040518060e0016040529081600082015481526020016001820180546123779061405d565b80601f01602080910402602001604051908101604052809291908181526020018280546123a39061405d565b80156123f05780601f106123c5576101008083540402835291602001916123f0565b820191906000526020600020905b8154815290600101906020018083116123d357829003601f168201915b50505050508152602001600282015481526020016003820154815260200160048201805461241d9061405d565b80601f01602080910402602001604051908101604052809291908181526020018280546124499061405d565b80156124965780601f1061246b57610100808354040283529160200191612496565b820191906000526020600020905b81548152906001019060200180831161247957829003601f168201915b505050505081526020016005820160009054906101000a900473ffffffffffffffffffffffffffffffffffffffff1673ffffffffffffffffffffffffffffffffffffffff1673ffffffffffffffffffffffffffffffffffffffff1681526020016006820160009054906101000a900473ffffffffffffffffffffffffffffffffffffffff1673ffffffffffffffffffffffffffffffffffffffff1673ffffffffffffffffffffffffffffffffffffffff16815250508152602001906001019061233a565b50505050905090565b60006002868154811061257957612578613f93565b5b90600052602060002090600702019050600560003373ffffffffffffffffffffffffffffffffffffffff1673ffffffffffffffffffffffffffffffffffffffff16815260200190815260200160002060009054906101000a900460ff16612615576040517f08c379a000000000000000000000000000000000000000000000000000000000815260040161260c906149be565b60405180910390fd5b600081600301541161265c576040517f08c379a000000000000000000000000000000000000000000000000000000000815260040161265390614a2a565b60405180910390fd5b80600301548511156126a3576040517f08c379a000000000000000000000000000000000000000000000000000000000815260040161269a90614a96565b60405180910390fd5b60008160050160009054906101000a900473ffffffffffffffffffffffffffffffffffffffff1673ffffffffffffffffffffffffffffffffffffffff16346040516126ed90614ae7565b60006040518083038185875af1925050503d806000811461272a576040519150601f19603f3d011682016040523d82523d6000602084013e61272f565b606091505b5050905080612773576040517f08c379a000000000000000000000000000000000000000000000000000000000815260040161276a90614b48565b60405180910390fd5b60006040518060e0016040528060015481526020018781526020018681526020018881526020018581526020013373ffffffffffffffffffffffffffffffffffffffff1681526020018460060160009054906101000a900473ffffffffffffffffffffffffffffffffffffffff1673ffffffffffffffffffffffffffffffffffffffff1681525090506002819080600181540180825580915050600190039060005260206000209060070201600090919091909150600082015181600001556020820151816001019081612847919061423a565b5060408201518160020155606082015181600301556080820151816004019081612871919061423a565b5060a08201518160050160006101000a81548173ffffffffffffffffffffffffffffffffffffffff021916908373ffffffffffffffffffffffffffffffffffffffff16021790555060c08201518160060160006101000a81548173ffffffffffffffffffffffffffffffffffffffff021916908373ffffffffffffffffffffffffffffffffffffffff16021790555050503373ffffffffffffffffffffffffffffffffffffffff1681600001517fe8bb4e90e950f7b76a8c4e472b3b5e01d41c478f9eeaea36b4ba991f51133f9160405160405180910390a38683600301600082825461295e9190613f5f565b92505081905550600160008154809291906129789061430c565b91905055505050505050505050565b600660003373ffffffffffffffffffffffffffffffffffffffff1673ffffffffffffffffffffffffffffffffffffffff16815260200190815260200160002060009054906101000a900460ff16612a13576040517f08c379a0000000000000000000000000000000000000000000000000000000008152600401612a0a90614c00565b60405180910390fd5b600560003373ffffffffffffffffffffffffffffffffffffffff1673ffffffffffffffffffffffffffffffffffffffff16815260200190815260200160002060009054906101000a900460ff16612a9f576040517f08c379a0000000000000000000000000000000000000000000000000000000008152600401612a9690614c92565b60405180910390fd5b60006040518060e0016040528060015481526020018681526020018581526020018481526020018381526020013373ffffffffffffffffffffffffffffffffffffffff1681526020013373ffffffffffffffffffffffffffffffffffffffff1681525090506002819080600181540180825580915050600190039060005260206000209060070201600090919091909150600082015181600001556020820151816001019081612b4f919061423a565b5060408201518160020155606082015181600301556080820151816004019081612b79919061423a565b5060a08201518160050160006101000a81548173ffffffffffffffffffffffffffffffffffffffff021916908373ffffffffffffffffffffffffffffffffffffffff16021790555060c08201518160060160006101000a81548173ffffffffffffffffffffffffffffffffffffffff021916908373ffffffffffffffffffffffffffffffffffffffff160217905550505060016000815480929190612c1d9061430c565b91905055505050505050565b60008054906101000a900473ffffffffffffffffffffffffffffffffffffffff1673ffffffffffffffffffffffffffffffffffffffff163373ffffffffffffffffffffffffffffffffffffffff1614612cb7576040517f08c379a0000000000000000000000000000000000000000000000000000000008152600401612cae90614cfe565b60405180910390fd5b6000600560008373ffffffffffffffffffffffffffffffffffffffff1673ffffffffffffffffffffffffffffffffffffffff16815260200190815260200160002060006101000a81548160ff021916908315150217905550600660008273ffffffffffffffffffffffffffffffffffffffff1673ffffffffffffffffffffffffffffffffffffffff16815260200190815260200160002060009054906101000a900460ff1615612dba576000600660008373ffffffffffffffffffffffffffffffffffffffff1673ffffffffffffffffffffffffffffffffffffffff16815260200190815260200160002060006101000a81548160ff0219169083151502179055505b50565b60606003805480602002602001604051908101604052809291908181526020016000905b8282101561319a5783829060005260206000209060070201604051806101000160405290816000820160009054906101000a900473ffffffffffffffffffffffffffffffffffffffff1673ffffffffffffffffffffffffffffffffffffffff1673ffffffffffffffffffffffffffffffffffffffff168152602001600182018054612e6b9061405d565b80601f0160208091040260200160405190810160405280929190818152602001828054612e979061405d565b8015612ee45780601f10612eb957610100808354040283529160200191612ee4565b820191906000526020600020905b815481529060010190602001808311612ec757829003601f168201915b50505050508152602001600282018054612efd9061405d565b80601f0160208091040260200160405190810160405280929190818152602001828054612f299061405d565b8015612f765780601f10612f4b57610100808354040283529160200191612f76565b820191906000526020600020905b815481529060010190602001808311612f5957829003601f168201915b50505050508152602001600382018054612f8f9061405d565b80601f0160208091040260200160405190810160405280929190818152602001828054612fbb9061405d565b80156130085780601f10612fdd57610100808354040283529160200191613008565b820191906000526020600020905b815481529060010190602001808311612feb57829003601f168201915b505050505081526020016004820180546130219061405d565b80601f016020809104026020016040519081016040528092919081815260200182805461304d9061405d565b801561309a5780601f1061306f5761010080835404028352916020019161309a565b820191906000526020600020905b81548152906001019060200180831161307d57829003601f168201915b505050505081526020016005820180546130b39061405d565b80601f01602080910402602001604051908101604052809291908181526020018280546130df9061405d565b801561312c5780601f106131015761010080835404028352916020019161312c565b820191906000526020600020905b81548152906001019060200180831161310f57829003601f168201915b505050505081526020016006820160009054906101000a900460ff16600481111561315a576131596132eb565b5b600481111561316c5761316b6132eb565b5b81526020016006820160019054906101000a900460ff16151515158152505081526020019060010190612de1565b50505050905090565b6000604051905090565b600080fd5b600080fd5b6000819050919050565b6131ca816131b7565b81146131d557600080fd5b50565b6000813590506131e7816131c1565b92915050565b600060208284031215613203576132026131ad565b5b6000613211848285016131d8565b91505092915050565b600073ffffffffffffffffffffffffffffffffffffffff82169050919050565b60006132458261321a565b9050919050565b6132558161323a565b82525050565b600081519050919050565b600082825260208201905092915050565b60005b8381101561329557808201518184015260208101905061327a565b60008484015250505050565b6000601f19601f8301169050919050565b60006132bd8261325b565b6132c78185613266565b93506132d7818560208601613277565b6132e0816132a1565b840191505092915050565b7f4e487b7100000000000000000000000000000000000000000000000000000000600052602160045260246000fd5b6005811061332b5761332a6132eb565b5b50565b600081905061333c8261331a565b919050565b600061334c8261332e565b9050919050565b61335c81613341565b82525050565b60008115159050919050565b61337781613362565b82525050565b600061010082019050613393600083018b61324c565b81810360208301526133a5818a6132b2565b905081810360408301526133b981896132b2565b905081810360608301526133cd81886132b2565b905081810360808301526133e181876132b2565b905081810360a08301526133f581866132b2565b905061340460c0830185613353565b61341160e083018461336e565b9998505050505050505050565b6134278161323a565b811461343257600080fd5b50565b6000813590506134448161341e565b92915050565b6000602082840312156134605761345f6131ad565b5b600061346e84828501613435565b91505092915050565b613480816131b7565b82525050565b600060c08201905061349b600083018961324c565b6134a86020830188613477565b6134b5604083018761324c565b6134c26060830186613477565b6134cf6080830185613477565b6134dc60a0830184613477565b979650505050505050565b600060e0820190506134fc600083018a613477565b818103602083015261350e81896132b2565b905061351d6040830188613477565b61352a6060830187613477565b818103608083015261353c81866132b2565b905061354b60a083018561324c565b61355860c083018461324c565b98975050505050505050565b600080600080600060a086880312156135805761357f6131ad565b5b600061358e888289016131d8565b955050602061359f88828901613435565b94505060406135b0888289016131d8565b93505060606135c188828901613435565b92505060806135d2888289016131d8565b9150509295509295909350565b60006020820190506135f4600083018461324c565b92915050565b60008060408385031215613611576136106131ad565b5b600061361f858286016131d8565b9250506020613630858286016131d8565b9150509250929050565b600080fd5b600080fd5b7f4e487b7100000000000000000000000000000000000000000000000000000000600052604160045260246000fd5b61367c826132a1565b810181811067ffffffffffffffff8211171561369b5761369a613644565b5b80604052505050565b60006136ae6131a3565b90506136ba8282613673565b919050565b600067ffffffffffffffff8211156136da576136d9613644565b5b6136e3826132a1565b9050602081019050919050565b82818337600083830152505050565b600061371261370d846136bf565b6136a4565b90508281526020810184848401111561372e5761372d61363f565b5b6137398482856136f0565b509392505050565b600082601f8301126137565761375561363a565b5b81356137668482602086016136ff565b91505092915050565b6005811061377c57600080fd5b50565b60008135905061378e8161376f565b92915050565b600080600080600080600060e0888a0312156137b3576137b26131ad565b5b60006137c18a828b01613435565b975050602088013567ffffffffffffffff8111156137e2576137e16131b2565b5b6137ee8a828b01613741565b965050604088013567ffffffffffffffff81111561380f5761380e6131b2565b5b61381b8a828b01613741565b955050606088013567ffffffffffffffff81111561383c5761383b6131b2565b5b6138488a828b01613741565b945050608088013567ffffffffffffffff811115613869576138686131b2565b5b6138758a828b01613741565b93505060a088013567ffffffffffffffff811115613896576138956131b2565b5b6138a28a828b01613741565b92505060c06138b38a828b0161377f565b91505092959891949750929550565b60006020820190506138d76000830184613477565b92915050565b600081519050919050565b600082825260208201905092915050565b6000819050602082019050919050565b613912816131b7565b82525050565b600082825260208201905092915050565b60006139348261325b565b61393e8185613918565b935061394e818560208601613277565b613957816132a1565b840191505092915050565b61396b8161323a565b82525050565b600060e0830160008301516139896000860182613909565b50602083015184820360208601526139a18282613929565b91505060408301516139b66040860182613909565b5060608301516139c96060860182613909565b50608083015184820360808601526139e18282613929565b91505060a08301516139f660a0860182613962565b5060c0830151613a0960c0860182613962565b508091505092915050565b6000613a208383613971565b905092915050565b6000602082019050919050565b6000613a40826138dd565b613a4a81856138e8565b935083602082028501613a5c856138f9565b8060005b85811015613a985784840389528151613a798582613a14565b9450613a8483613a28565b925060208a01995050600181019050613a60565b50829750879550505050505092915050565b60006020820190508181036000830152613ac48184613a35565b905092915050565b600080600080600060a08688031215613ae857613ae76131ad565b5b6000613af6888289016131d8565b9550506020613b07888289016131d8565b945050604086013567ffffffffffffffff811115613b2857613b276131b2565b5b613b3488828901613741565b9350506060613b45888289016131d8565b925050608086013567ffffffffffffffff811115613b6657613b656131b2565b5b613b7288828901613741565b9150509295509295909350565b60008060008060808587031215613b9957613b986131ad565b5b600085013567ffffffffffffffff811115613bb757613bb66131b2565b5b613bc387828801613741565b9450506020613bd4878288016131d8565b9350506040613be5878288016131d8565b925050606085013567ffffffffffffffff811115613c0657613c056131b2565b5b613c1287828801613741565b91505092959194509250565b600081519050919050565b600082825260208201905092915050565b6000819050602082019050919050565b613c5381613341565b82525050565b613c6281613362565b82525050565b600061010083016000830151613c816000860182613962565b5060208301518482036020860152613c998282613929565b91505060408301518482036040860152613cb38282613929565b91505060608301518482036060860152613ccd8282613929565b91505060808301518482036080860152613ce78282613929565b91505060a083015184820360a0860152613d018282613929565b91505060c0830151613d1660c0860182613c4a565b5060e0830151613d2960e0860182613c59565b508091505092915050565b6000613d408383613c68565b905092915050565b6000602082019050919050565b6000613d6082613c1e565b613d6a8185613c29565b935083602082028501613d7c85613c3a565b8060005b85811015613db85784840389528151613d998582613d34565b9450613da483613d48565b925060208a01995050600181019050613d80565b50829750879550505050505092915050565b60006020820190508181036000830152613de48184613d55565b905092915050565b7f506c6561736520726567697374657220796f757273656c660000000000000000600082015250565b6000613e22601883613266565b9150613e2d82613dec565b602082019050919050565b60006020820190508181036000830152613e5181613e15565b9050919050565b7f4e6f2070656e64696e672064656c697665727900000000000000000000000000600082015250565b6000613e8e601383613266565b9150613e9982613e58565b602082019050919050565b60006020820190508181036000830152613ebd81613e81565b9050919050565b7f496e73756666696369656e74207061796d656e74000000000000000000000000600082015250565b6000613efa601483613266565b9150613f0582613ec4565b602082019050919050565b60006020820190508181036000830152613f2981613eed565b9050919050565b7f4e487b7100000000000000000000000000000000000000000000000000000000600052601160045260246000fd5b6000613f6a826131b7565b9150613f75836131b7565b9250828203905081811115613f8d57613f8c613f30565b5b92915050565b7f4e487b7100000000000000000000000000000000000000000000000000000000600052603260045260246000fd5b7f4e6f7420656e6f7567682070726f64756374207175616e746974790000000000600082015250565b6000613ff8601b83613266565b915061400382613fc2565b602082019050919050565b6000602082019050818103600083015261402781613feb565b9050919050565b7f4e487b7100000000000000000000000000000000000000000000000000000000600052602260045260246000fd5b6000600282049050600182168061407557607f821691505b6020821081036140885761408761402e565b5b50919050565b60008190508160005260206000209050919050565b60006020601f8301049050919050565b600082821b905092915050565b6000600883026140f07fffffffffffffffffffffffffffffffffffffffffffffffffffffffffffffffff826140b3565b6140fa86836140b3565b95508019841693508086168417925050509392505050565b6000819050919050565b600061413761413261412d846131b7565b614112565b6131b7565b9050919050565b6000819050919050565b6141518361411c565b61416561415d8261413e565b8484546140c0565b825550505050565b600090565b61417a61416d565b614185818484614148565b505050565b5b818110156141a95761419e600082614172565b60018101905061418b565b5050565b601f8211156141ee576141bf8161408e565b6141c8846140a3565b810160208510156141d7578190505b6141eb6141e3856140a3565b83018261418a565b50505b505050565b600082821c905092915050565b6000614211600019846008026141f3565b1980831691505092915050565b600061422a8383614200565b9150826002028217905092915050565b6142438261325b565b67ffffffffffffffff81111561425c5761425b613644565b5b614266825461405d565b6142718282856141ad565b600060209050601f8311600181146142a45760008415614292578287015190505b61429c858261421e565b865550614304565b601f1984166142b28661408e565b60005b828110156142da578489015182556001820191506020850194506020810190506142b5565b868310156142f757848901516142f3601f891682614200565b8355505b6001600288020188555050505b505050505050565b6000614317826131b7565b91507fffffffffffffffffffffffffffffffffffffffffffffffffffffffffffffffff820361434957614348613f30565b5b600182019050919050565b7f437573746f6d6572206973206e6f742072656769737465726564000000000000600082015250565b600061438a601a83613266565b915061439582614354565b602082019050919050565b600060208201905081810360008301526143b98161437d565b9050919050565b7f4e6f2064656c697665727920666f756e6420666f72207468697320637573746f60008201527f6d65720000000000000000000000000000000000000000000000000000000000602082015250565b600061441c602383613266565b9150614427826143c0565b604082019050919050565b6000602082019050818103600083015261444b8161440f565b9050919050565b7f4c6f67697374696373206e6f7420726567697374657265640000000000000000600082015250565b6000614488601883613266565b915061449382614452565b602082019050919050565b600060208201905081810360008301526144b78161447b565b9050919050565b7f437573746f6d6572206e6f742072656769737465726564000000000000000000600082015250565b60006144f4601783613266565b91506144ff826144be565b602082019050919050565b60006020820190508181036000830152614523816144e7565b9050919050565b7f5175616e74697479206d7573742062652067726561746572207468616e207a6560008201527f726f000000000000000000000000000000000000000000000000000000000000602082015250565b6000614586602283613266565b91506145918261452a565b604082019050919050565b600060208201905081810360008301526145b581614579565b9050919050565b7f496e76616c69642070726f647563742049440000000000000000000000000000600082015250565b60006145f2601283613266565b91506145fd826145bc565b602082019050919050565b60006020820190508181036000830152614621816145e5565b9050919050565b7f496e73756666696369656e742070726f64756374207175616e74697479000000600082015250565b600061465e601d83613266565b915061466982614628565b602082019050919050565b6000602082019050818103600083015261468d81614651565b9050919050565b600061469f826131b7565b91506146aa836131b7565b92508282026146b8816131b7565b915082820484148315176146cf576146ce613f30565b5b5092915050565b60006146e1826131b7565b91506146ec836131b7565b925082820190508082111561470457614703613f30565b5b92915050565b7f4f6e6c79207468652063757272656e74206f776e65722063616e20757064617460008201527f6520746865207072696365000000000000000000000000000000000000000000602082015250565b6000614766602b83613266565b91506147718261470a565b604082019050919050565b6000602082019050818103600083015261479581614759565b9050919050565b7f5072696365206d7573742062652067726561746572207468616e207a65726f00600082015250565b60006147d2601f83613266565b91506147dd8261479c565b602082019050919050565b60006020820190508181036000830152614801816147c5565b9050919050565b7f4f6e6c79206f776e65722063616e2063726561746520656e7469746965730000600082015250565b600061483e601e83613266565b915061484982614808565b602082019050919050565b6000602082019050818103600083015261486d81614831565b9050919050565b7f456e7469747920616c7265616479206578697374730000000000000000000000600082015250565b60006148aa601583613266565b91506148b582614874565b602082019050919050565b600060208201905081810360008301526148d98161489d565b9050919050565b7f4f6e6c79206f776e65722063616e20616c6c6f7720656e746974696573000000600082015250565b6000614916601d83613266565b9150614921826148e0565b602082019050919050565b6000602082019050818103600083015261494581614909565b9050919050565b7f456e74697479206973206e6f7420616c6c6f77656420746f207075726368617360008201527f652070726f64756374732e000000000000000000000000000000000000000000602082015250565b60006149a8602b83613266565b91506149b38261494c565b604082019050919050565b600060208201905081810360008301526149d78161499b565b9050919050565b7f50726f64756374206f7574206f662073746f636b2e0000000000000000000000600082015250565b6000614a14601583613266565b9150614a1f826149de565b602082019050919050565b60006020820190508181036000830152614a4381614a07565b9050919050565b7f496e73756666696369656e742070726f64756374207175616e746974792e0000600082015250565b6000614a80601e83613266565b9150614a8b82614a4a565b602082019050919050565b60006020820190508181036000830152614aaf81614a73565b9050919050565b600081905092915050565b50565b6000614ad1600083614ab6565b9150614adc82614ac1565b600082019050919050565b6000614af282614ac4565b9150819050919050565b7f4574686572207472616e73666572206661696c65640000000000000000000000600082015250565b6000614b32601583613266565b9150614b3d82614afc565b602082019050919050565b60006020820190508181036000830152614b6181614b25565b9050919050565b7f41646472657373206973206e6f7420612072656769737465726564206661726d60008201527f65722e204f6e6c7920612072656769737465726564206661726d65722063616e60208201527f2063726561746520746869732070726f64756374000000000000000000000000604082015250565b6000614bea605483613266565b9150614bf582614b68565b606082019050919050565b60006020820190508181036000830152614c1981614bdd565b9050919050565b7f456e74697479206973206e6f7420616c6c6f77656420746f206372656174652060008201527f70726f6475637473000000000000000000000000000000000000000000000000602082015250565b6000614c7c602883613266565b9150614c8782614c20565b604082019050919050565b60006020820190508181036000830152614cab81614c6f565b9050919050565b7f4f6e6c79206f776e65722063616e20646973616c6c6f7720656e746974696573600082015250565b6000614ce8602083613266565b9150614cf382614cb2565b602082019050919050565b60006020820190508181036000830152614d1781614cdb565b905091905056fea2646970667358221220998a6c123ecdc81278a6a4b0a5ae7c27aa031f9d1b02c29809df15b43836a42564736f6c63430008120033",
  "immutableReferences": {},
  "source": "// SPDX-License-Identifier: MIT\npragma solidity >=0.4.22 <0.9.0;\ncontract SupplyChain {\n    enum EntityType { Farmer, Wholesaler, Logistics, Retailer, Customer }\n    \n    address public owner;\n    uint public id;  // Make id public to easily check current value\n    struct Entity {\n        address Firmadd;\n        string Firmname;\n        string Firmlocation;\n        string ownerName;\n        string ownerContact;\n        string city;\n        EntityType entityType;\n        bool isAllowed;\n    }\n    \n    struct Product {\n        uint id; // Unique ID for each product\n        string variety;\n        uint price;\n        uint quantity;\n        string dateOfHarvest;\n        address currentOwner; // Current owner of the product\n        address creator;\n    }\n    \n    Product[] public products;\n    Entity[] public entities;\n    \n    mapping(address => bool) private entityExists;\n    mapping(address => bool) private entityAllowed;\n    mapping(address => bool) private isFarmer;\n\n    constructor() {\n        owner = msg.sender;\n        id = 0;\n    }\n\n    function setEntity(\n        address _Firmadd,\n        string memory _Firmname,\n        string memory _Firmlocation,\n        string memory _ownerName,\n        string memory _ownerContact,\n        string memory _city,\n        EntityType _entityType\n    ) public {\n        require(msg.sender == owner, \"Only owner can create entities\");\n        require(!entityExists[_Firmadd], \"Entity already exists\");\n\n        entities.push(Entity({\n            Firmadd: _Firmadd,\n            Firmname: _Firmname,\n            Firmlocation: _Firmlocation,\n            ownerName: _ownerName,\n            ownerContact: _ownerContact,\n            city: _city,\n            entityType: _entityType,\n            isAllowed: true\n        }));\n\n        entityAllowed[_Firmadd] = true;\n        entityExists[_Firmadd] = true;\n        \n        if (_entityType == EntityType.Farmer) {\n            isFarmer[_Firmadd] = true;\n        }\n    }\n\n    function allowEntity(address _Firmadd) public {\n        require(msg.sender == owner, \"Only owner can allow entities\");\n        entityAllowed[_Firmadd] = true;\n    }\n\n    function disallowEntity(address _Firmadd) public {\n        require(msg.sender == owner, \"Only owner can disallow entities\");\n        entityAllowed[_Firmadd] = false;\n\n        if (isFarmer[_Firmadd]) {\n            isFarmer[_Firmadd] = false;\n        }\n    }\n\n    function getEntity() public view returns (Entity[] memory) {\n        return entities; // Return all entities\n    }\n\n    function productCreation(\n        string memory _variety,\n        uint _price,\n        uint _quantity,\n        string memory _date\n    ) public {\n        require(isFarmer[msg.sender], \"Address is not a registered farmer. Only a registered farmer can create this product\");\n        require(entityAllowed[msg.sender], \"Entity is not allowed to create products\");\n        \n        Product memory newProduct = Product({\n            id: id, // Assign unique ID\n            variety: _variety,\n            price: _price,\n            quantity: _quantity,\n            dateOfHarvest: _date,\n            currentOwner: msg.sender, // Initial creator is the current owner\n            creator: msg.sender\n        });\n        \n        products.push(newProduct);\n        id++; // Increment ID after adding the new product\n    }\n\n    function getProducts() public view returns (Product[] memory) {\n        return products;\n    }\n\n    receive() external payable {}\n\nfunction updateProductPrice(uint _productId, uint _newPrice) public {\n        Product storage product = products[_productId];\n        require(msg.sender == product.currentOwner, \"Only the current owner can update the price\");\n        require(_newPrice > 0, \"Price must be greater than zero\");\n\n        product.price = _newPrice;\n    }\n\n    event ProductCreated(uint indexed productId, address indexed creator);\n\n    function directPurchase(uint _productId, uint _weight, string memory _variety, uint _price, string memory _date) public payable {\n        Product storage product = products[_productId];\n        require(entityAllowed[msg.sender], \"Entity is not allowed to purchase products.\");\n        require(product.quantity > 0, \"Product out of stock.\");\n        require(_weight <= product.quantity, \"Insufficient product quantity.\");\n\n        // Ensure that the payment is made to the current owner\n        (bool success, ) = product.currentOwner.call{value: msg.value}(\"\");\n        require(success, \"Ether transfer failed\");\n\n        // Create new product to represent the purchase\n        Product memory newProduct = Product({\n            id: id, // Assign a unique ID\n            variety: _variety,\n            price: _price,\n            quantity: _weight,\n            dateOfHarvest: _date,\n            currentOwner: msg.sender, // New owner is the buyer\n            creator: product.creator\n        });\n        \n        products.push(newProduct); // Add the new product to the array\n        emit ProductCreated(newProduct.id, msg.sender); \n        product.quantity -= _weight; \n\n        id++; \n    }\n\n    struct Delivery {\n        address logistics;\n        uint quantity;\n        address customer;\n        uint fair;\n        uint totalBill;\n        uint productId;\n    }\n\n    mapping(address => Delivery) public deliveries;\n    function delivery(uint _productId, address _logistics, uint _quantity, address _customer, uint _fair) public {\n        require(entityAllowed[msg.sender], \"Please register yourself\");\n        require(entityAllowed[_logistics], \"Logistics not registered\");\n        require(entityAllowed[_customer], \"Customer not registered\");\n        require(_quantity > 0, \"Quantity must be greater than zero\");\n        require(_productId < products.length, \"Invalid product ID\");\n        \n        Product storage product = products[_productId];\n        require(product.quantity >= _quantity, \"Insufficient product quantity\");\n\n        uint totalBill = product.price * _quantity + _fair;\n\n        deliveries[_customer] = Delivery({\n            logistics: _logistics,\n            quantity: _quantity,\n            customer: _customer,\n            fair: _fair,\n            totalBill: totalBill,\n            productId: _productId\n        });\n        \n    }\n     function acceptDelivery() public payable {\n        require(entityAllowed[msg.sender], \"Please register yourself\");\n        Delivery storage currentDelivery = deliveries[msg.sender];\n        require(currentDelivery.customer != address(0), \"No pending delivery\");\n        require(msg.value >= currentDelivery.totalBill, \"Insufficient payment\");\n\n    }\n    function rejectDelivery() public {\n        require(entityAllowed[msg.sender], \"Please register yourself\");\n        Delivery storage currentDelivery = deliveries[msg.sender];\n        require(currentDelivery.customer != address(0), \"No pending delivery\");\n\n        delete deliveries[msg.sender]; // Clear the delivery record on rejection\n    }\n\n    function cancelDelivery() public {\n        require(entityAllowed[msg.sender], \"Please register yourself\");\n        Delivery storage currentDelivery = deliveries[msg.sender];\n        require(currentDelivery.customer != address(0), \"No pending delivery\");\n\n        payable(currentDelivery.logistics).transfer(currentDelivery.fair);\n        uint remainingMoney = currentDelivery.totalBill - currentDelivery.fair;\n        payable(msg.sender).transfer(remainingMoney);\n\n        delete deliveries[msg.sender];\n    }\n    function receiveDelivery() public {\n    require(entityAllowed[msg.sender], \"Please register yourself\");\n    Delivery storage currentDelivery = deliveries[msg.sender];\n    require(currentDelivery.customer != address(0), \"No pending delivery\");\n\n    // Transfer payment to the customer and logistics\n    payable(currentDelivery.customer).transfer(currentDelivery.totalBill - currentDelivery.fair);\n    payable(currentDelivery.logistics).transfer(currentDelivery.fair);\n    \n    // Access the product being delivered\n    Product storage product = products[currentDelivery.productId]; \n    require(product.quantity >= currentDelivery.quantity, \"Not enough product quantity\");\n\n    // Update the existing product's quantity\n    product.quantity -= currentDelivery.quantity;\n\n    // Create a new product record for the received delivery\n    Product memory newProduct = Product({\n        id: id, // Assign a unique ID\n        variety: product.variety, // Access variety from the existing product\n        price: product.price, // Access price from the existing product\n        quantity: currentDelivery.quantity, // Use the quantity from the delivery\n        dateOfHarvest: product.dateOfHarvest, // Access date of harvest from the existing product\n        currentOwner: msg.sender, // New owner is the receiver\n        creator: product.creator // Original creator\n    });\n\n    // Add the new product to the products array\n    products.push(newProduct);\n    id++; // Increment ID for the next new product\n\n    // Clear the delivery record\n    delete deliveries[msg.sender];\n}\n// Function to get the delivery details for a specific customer address\nfunction getDeliveryDetails(address _customer) public view returns (\n    address logistics,\n    uint quantity,\n    address customer,\n    uint fair,\n    uint totalBill,\n    uint productId\n) {\n    require(entityAllowed[_customer], \"Customer is not registered\");\n\n    // Fetch the delivery for the provided customer address\n    Delivery memory currentDelivery = deliveries[_customer];\n    \n    // Ensure there is a delivery record\n    require(currentDelivery.customer != address(0), \"No delivery found for this customer\");\n\n    return (\n        currentDelivery.logistics,\n        currentDelivery.quantity,\n        currentDelivery.customer,\n        currentDelivery.fair,\n        currentDelivery.totalBill,\n        currentDelivery.productId\n    );\n}\n\n\n}\n                               ",
  "sourcePath": "D:\\Happy\\my suplychain\\truffle\\contracts\\SupplyChain.sol",
  "compiler": {
    "name": "solc",
    "version": "0.8.18+commit.87f61d96.Emscripten.clang"
  },
  "schemaVersion": "3.4.16",
  "updatedAt": "2024-11-12T06:00:14.040Z",
  "networkType": "ethereum",
  "devdoc": {
    "kind": "dev",
    "methods": {},
    "version": 1
  },
  "userdoc": {
    "kind": "user",
    "methods": {},
    "version": 1
  }
}